:020000041000EA
:1000000000B5324B212058609868022188439860DF
:10001000D860186158612E4B002199600221596106
:100020000121F02299502B49196001219960352056
:1000300000F044F80222904214D00621196600F024
:1000400034F8196E01211966002018661A6600F04E
:100050002CF8196E196E196E052000F02FF8012189
:100060000842F9D1002199601B49196000215960AB
:100070001A491B48016001219960EB211966A021F2
:10008000196600F012F800219960164914480160C1
:100090000121996001BC002800D000471248134993
:1000A000086003C880F30888084703B5996A0420EC
:1000B0000142FBD001200142F8D103BD02B5186610
:1000C0001866FFF7F2FF186E186E02BD00000240BE
:1000D000000000180000070000035F00212200005C
:1000E000F4000018222000A00001001008ED00E03C
:1000F00000000000000000000000000074B24E7A12
:1001000000200420F7010010C3010010C5010010F9
:10011000C1010010C1010010C1010010C101001097
:10012000C1010010C1010010C1010010C701001081
:10013000C1010010C1010010C9010010CB01001065
:10014000CD010010CD010010CD010010CD01001037
:10015000CD010010CD010010CD010010CD01001027
:10016000CD010010CD010010CD010010CD01001017
:10017000CD010010CD010010CD010010CD01001007
:10018000CD010010CD010010CD010010CD010010F7
:10019000CD010010CD010010CD010010CD010010E7
:1001A000CD010010CD010010CD010010CD010010D7
:1001B000CD010010CD010010CD010010CD010010C7
:1001C00000BE00BE00BE00BE00BE00BE00F04BF888
:1001D000103800BEF2EB88713CBB001058BB001019
:1001E0003402001090A31AE700202149086006C8D5
:1001F00081F3088810471F48006800282FD10DA4FC
:100200000ECC002902D000F012F8F9E71A491B4A77
:10021000002000E001C19142FCD1194988471949E9
:1002200088471949884700BEFDE701C901C29A42C3
:10023000FBD3704758BB0010C0000020540B0020B7
:10024000ECC500100000042000000420ECC50010E4
:1002500000100420001004200000000070470B482C
:1002600006F05AFB0047EFF30580C0B2704700006C
:1002700008ED00E0000000D0580B00207C1F00209B
:1002800081480010B5040010A54900105756000021
:1002900006005250ABB36053B8B80010060052507D
:1002A000861C0302C8B80010060052505422A29DBA
:1002B000D0B8001005005250DE65F468ECC500109F
:1002C000F8B5C04610B5064C2378002B07D1054B76
:1002D000002B02D0044800E000BF0123237010BDB2
:1002E000600B00200000000040B40010084B10B567
:1002F000002B03D00749084800E000BF0748036807
:10030000002B00D110BD064B002BFBD09847F9E71E
:1003100000000000640B002040B40010540B0020CB
:100320000000000010B5012009F07AFF10BDC046A2
:10033000F0B5C64600B5574C84B05749200009F0C7
:10034000EDFD01210500200009F0CAFD8023DB033B
:1003500080461A000100200009F048FE8023DB03DC
:100360001A004146200009F081FE0721162003F003
:1003700087F880235B0200932B001433EA011B03F0
:100380001343464A052013408022D20513430193AC
:10039000C023DB020293424B039304F099FC07F065
:1003A00067F9404907F05BF9071C07F089F986B245
:1003B000300007F063F9011C381C07F04AF9872167
:1003C000C90507F04FF907F07BF92A000125C3B2F0
:1003D00036041B023343009341466B46200009F06C
:1003E000CFFE41462A008A4023680F2093431343DF
:1003F000236003F0B1F88022D02312021B062A4F9B
:100400005A622A4B38003B800823BB700023FB70E4
:1004100002337B710133BB710133FB7101333B72DA
:1004200001337B7201333D71BB7200F065F94346C5
:1004300010339D404346A4469E00B881664409F0AF
:10044000F9FE01281CD00228F9D163681D42FCD1B5
:10045000174B336163681D42FCD101235B4233615A
:1004600063681D42FCD101235B42336163681D4216
:10047000FCD101235B42336109F0DCFE0128E2D1AB
:1004800042460449380001F0C5FBFA20800003F021
:10049000C1FCD4E70000305080B40010FFFFFF9F84
:1004A000165810400024F449781600204604000035
:1004B000FFFFFF7FF0B5DE4657464E464546E0B5A6
:1004C000844C8DB007F0A2FB8349200009F026FD83
:1004D00001210600200009F003FD002380461522BB
:1004E0000100039000932000013309F001FE062172
:1004F000152002F0C5FF00220121152002F0D8FFCF
:100500001022002108A807F03BF980235B02089322
:10051000F8235B020993C0231B030A9308AB19005D
:10052000102204A807F032F933001B33F2011B0339
:100530001343059304AB1022190008A807F026F90D
:10054000A8231B030B93C82305205B030A9304F025
:10055000BFFB07F08DF8614907F081F8071C07F031
:10056000AFF885B2280007F089F8011C381C07F0A5
:1005700070F88721C90507F075F807F0A1F8C3B234
:100580002D041B022B430125414632000893200015
:1005900008AB09F0F5FD47462A00BA4023685048E9
:1005A00093431343236009F053FE0E2002F0D4FF5F
:1005B000D02680233606DB01B362002201210E2003
:1005C00002F076FF474B012204210E2002F08AFF41
:1005D0003B1D9D40444BAB469946444B444F9A4685
:1005E0003C4C4A460399200002F078FCFA20400077
:1005F00003F010FC4B461B683E48D900C91A49005D
:100600007A189389795A927807F0F4FA4B461B6866
:10061000D900CA1A5200BA189278002A55D000247C
:10062000CB1A5B00FB181B19DA782100504607F043
:10063000E1FA4B461B680134D900CA1A5200BA18B5
:100640009278A242ECDC5D46224C20682843206070
:10065000802500202D028046002A2CD0CB1A5B007A
:10066000FB184344DB780024002B14D0FA2075617A
:10067000400003F0CFFBFA20B561400003F0CAFB55
:100680004B461A680134D3009B1A5B00FB184344A5
:10069000DB78A342EADCFA20800003F0BBFB0123F5
:1006A0009C464B461B68E044D900CA1A5200BA184F
:1006B00092784245D2DC5946FA20064A80001368F7
:1006C0000B43136003F0A6FB8AE75A4623681343E3
:1006D0002360F0E70000205040B400100024F449EB
:1006E000310300102503001040020020D0B4001098
:1006F00018170020B4B40010F0B5DE4657464E4639
:100700004546E0B5837883B08446002B00D0A1E055
:1007100003889A0591460122590501D500F0D1FDC3
:1007200059120A4201D001F061F819120A4201D0AF
:1007300001F05FF8D9110A4201D001F048F899118F
:100740000A4201D001F046F859110A4201D001F0E5
:1007500044F819110A4201D001F042F8D9100A42B6
:1007600001D001F040F899100A4201D001F0A6F83A
:100770009B0701D501F0A5F80127B94B0F261B886F
:1007800001259A46002398468023DB01D4469B46E8
:10079000C2460737781EC4B2A31BDBB20022A342B5
:1007A00005D82900994001330A43A342F9D9841B93
:1007B00000D52FE14B461340E34042461A4393B223
:1007C00062465340DA0B00D031E15A46134200D062
:1007D00036E180229201134200D034E1802252019E
:1007E000134200D032E11A0500D532E15A0500D596
:1007F00032E19A0500D575E3DA0500D575E31A06EE
:1008000000D575E35A0600D586E39A0600D586E33F
:10081000DA0600D586E31A0700D586E35A0700D525
:1008200086E302221A4200D085E30E200D32934067
:1008300099B2884651460136BF1B002903D1092FC2
:1008400006DCD1460F37002F00DCF4E001239A4686
:1008500006009FE7012B00D104E1022B00D16DE3DC
:10086000032B00D1AFE1042B01D100F057FC052B85
:1008700000D163E2062B01D100F0CEFD072B01D1A0
:1008800000F0CCFE082B00D0CAE08024C278038898
:1008900024011443DA0314435A0501D501F017F972
:1008A0000122990501D501F01EF919120A4201D061
:1008B00001F016F9D9110A4201D001F00EF999118F
:1008C0000A4201D001F006F959110A4201D001F0A3
:1008D0004EF919110A4201D001F046F9D9100A4225
:1008E00001D001F03EF999100A4201D001F036F929
:1008F0005B101A4201D001F07EF90126584B00220C
:100900001B8801279B460F23984600234046E0465C
:1009100094460F3600936A46731E137112799946F6
:10092000131ADBB20021934205D83D009D400133EC
:1009300029439342F9D94B461B1A9A4601D500F038
:10094000DDFF0B0052462340D34062461A4393B268
:100950005A465340D90B01D001F070F88022D201E1
:10096000134201D001F0ACF880229201134201D071
:1009700001F0A2F880225201134201D001F098F850
:100980001A0501D501F090F85A0501D501F088F853
:100990009A0501D501F080F8DA0501D501F078F863
:1009A0001A0601D501F070F85A0601D501F05AF87F
:1009B0009A0601D501F052F8DA0601D501F04AF89D
:1009C0001A0701D501F042F85A0701D501F052F893
:1009D00002221A4201D001F049F80C320F318B404B
:1009E00001309DB2AC46361A01D500F078FC092ED4
:1009F0000EDC0098002800D07DE2434641461B797A
:100A0000240223434C791B021C430123103600931C
:100A1000100080E7844663464046F61A304180B2B3
:100A200003B03CBC90469946A246AB46F0BD0120BF
:100A300000224042FBE61804000C104180B2EFE7B0
:100A400000200122F3E601200222F0E60220032228
:100A5000EDE603200422EAE604200522E7E6C0468C
:100A60004402002080210288C07849000143D0035D
:100A70000143884691120B4201D001F002F8511255
:100A80000B4201D000F0FAFF11120B4201D000F02E
:100A9000AEFFD1110B4201D000F0A6FF91110B4225
:100AA00001D000F09EFF51110B4201D000F096FFE3
:100AB00011110B4201D000F08EFFD1100B4201D07A
:100AC00000F086FF510701D500F07FFF521013425E
:100AD00001D000F077FF0127974B00221B880F26DB
:100AE0009A46002399468023DB019B4643464846AD
:100AF00001259046D1460F3701936A467B1E13703D
:100B000012789C46931BDBB20021934205D82C003F
:100B10009C40013321439342F9D963469B1B9A467B
:100B200000D5B8E25246019B0B40D34042461A43DF
:100B300093B24A465340D90B00D0C3E25A461342FF
:100B400000D0C3E280229201134200D0C1E2802291
:100B50005201134200D0BFE21A0500D5C2E25A0585
:100B600000D5BCE29A0500D58FE3DA0500D589E30C
:100B70001A0600D590E35A0600D590E39A0600D5F0
:100B800093E3DA0600D58DE31A0700D5D4E35A07BC
:100B900000D5CEE302221A4200D0C7E30C320F3157
:100BA0008B4001369CB2A046BF1B002805D1092FFF
:100BB00007DC01980F37C0030190002F00DCA6E18D
:100BC0000120160099E7C022C178038892000A43E9
:100BD000D9030A4390460122590501D501F005F8D1
:100BE00059120A4201D001F012F819120A4201D03A
:100BF00001F00AF8D9110A4201D001F002F8991166
:100C00000A4201D000F0FAFF59110A4201D000F067
:100C1000C6FFD90601D500F0BFFFD9100A4201D0A6
:100C200000F0B7FF99100A4201D000F0AFFF5B104F
:100C30001A4201D000F0D6FF01273F4B00221B884B
:100C40000F269B4600239A46434601259046D946E7
:100C50000F3700937C1EE2B2931BDBB2002193425C
:100C600005D828009840013301439342F9D9A31BCA
:100C70009B4600D567E35A46009B0B40D340424653
:100C80001A4393B24A465340D90B00D057E380220F
:100C9000D201134200D06FE380229201134200D0B0
:100CA00073E380225201134200D06BE31A0500D592
:100CB00065E35A0500D577E39A0500D580E3DA05A8
:100CC00000D57AE31A0600D574E35A0600D56EE320
:100CD0009A0600D59AE3DA0601D500F071FD1A07ED
:100CE00001D500F08DFD5A0701D500F085FD0222E7
:100CF0001A4201D000F088FD0E310D3293400136CA
:100D000098B28046BF1B092F13DC5046002800D044
:100D1000DDE0009810370402604600792043644605
:100D2000647900020443012082460094002F00DC15
:100D3000C8E00E008EE7C04644020020A022C17821
:100D40000388D2000A43D9030A4390460122590579
:100D500001D500F0ECFE59120A4201D000F0E4FE89
:100D600019120A4201D000F0D6FED9110A4201D070
:100D700000F0CEFE590601D500F0C7FE59110A4217
:100D800001D000F0BFFE19110A4201D000F0DBFED5
:100D9000D9100A4201D000F0D3FE99100A4201D0C6
:100DA00000F0CBFE5B101A4201D000F0C3FE01261A
:100DB000D94B00221B8840469B4600230F27012564
:100DC0009046DA460F3601936A46731E1370127806
:100DD0009946D31BDBB20021934205D82C009C40DE
:100DE000013321439342F9D94B46DB1B9B4601D586
:100DF00000F00EFD0B005A460340D34042461A4312
:100E000093B252465340D90B01D000F012FD80221C
:100E1000D201134201D000F008FD8022920113425A
:100E200001D000F00FFD80225201134201D000F0EA
:100E300005FD1A0501D500F021FD5A0501D500F088
:100E400019FD9A0501D500F029FDDA0501D500F05C
:100E500021FD1A0601D500F019FD5A0601D500F052
:100E600011FD9A0601D500F001FDDA0601D500F06A
:100E7000F9FC1A0701D500F0F1FC5A0701D500F082
:100E8000E9FC02221A4201D000F0E0FC0E310D32E2
:100E9000934001379CB2A046F61B092E00DD2DE2DF
:100EA000019C002C00D02BE2040260460079103631
:100EB0002043644664790002204301240194002EFB
:100EC00000DD1BE21804000C104180B2A8E550467A
:100ED000012800D02AE700980F37C00300900220B5
:100EE000824623E705200622A1E4062007229EE48D
:100EF000072008229BE4012800D16FE3022800D1DB
:100F00005EE3032800D150E3002E00D080E51804F2
:100F1000000C084180B283E50820092287E40920FB
:100F20000A2284E40A200B2281E40B200C227EE4B6
:100F30000C200D227BE40D200E2278E48022C17863
:100F4000038892000A43D9030A43904601225905B7
:100F500001D500F034FD59120A4201D000F02CFDF9
:100F600019120A4201D000F024FDD9110A4201D021
:100F700000F01CFD99110A4201D000F014FD591136
:100F80000A4201D000F00CFD19110A4201D000F014
:100F900004FD190701D500F0FDFC99100A4201D0AB
:100FA00000F0BFFD5B101A4201D000F0B7FD012038
:100FB000594B00221B880F279A4600230093802359
:100FC000DB0101269B4691460F30421ED5B2EB1B3A
:100FD000DBB20021AB4205D834009C4001332143F1
:100FE000AB42F9D9D41B00D57FE043460B40E34028
:100FF0004A461A4393B252465340DA0B00D047E1B7
:101000005A46134200D053E180229201134200D08D
:1010100054E180225201134200D04CE11A0500D560
:1010200069E15A0500D563E19A0500D55DE1DA056D
:1010300000D557E11A0600D5B3E15A0600D5ADE157
:101040009A0600D5A7E1DA0600D5A1E11A0700D576
:10105000BFE15A0700D5B9E102221A4200D0B2E13D
:101060000F210C328B4001379CB2A146C01B0928CE
:101070000FDC009C002C07D14446250264462479ED
:1010800017302C43E403A046002800DC3FE701238F
:101090000093170099E7019B1400002042460125A8
:1010A000984600232900994001330843A342F9D907
:1010B0004346034018006346104380B2F61A30419D
:1010C00080B2ADE401220021524269E500220121F3
:1010D00066E50122022163E50222032160E5042284
:1010E00005215DE5032204215AE5130000204A464C
:1010F0000124994600232100994001330843AB4263
:10110000F9D94346034018004B46104380B2FF1AFA
:10111000384180B284E4C046440200208022C17875
:101120000388D2000A43D9030A4390460122590595
:1011300001D500F0C9FC59120A4201D000F0DFFCD1
:1011400019120A4201D000F0D7FCD9110A4201D08D
:1011500000F0CFFC99110A4201D000F0C7FC9906BB
:1011600001D500F045FD19110A4201D000F00BFD38
:10117000D9100A4201D000F003FD99100A4201D0B3
:1011800000F0FBFC5B101A4201D000F0F3FC0126DA
:10119000A04B00221B8840469B4600230F270125B9
:1011A0009046DA460F3601936A46731E1370127822
:1011B0009946D31BDBB20021934205D82C009C40FA
:1011C000013321439342F9D94B46DB1B9B4600D5A3
:1011D00008E10B005A460340D34042461A4393B2FB
:1011E00052465340D90B00D00CE18022D201134269
:1011F00000D004E180229201134200D0EFE080226F
:101200005201134200D0E7E01A0500D5F7E15A0574
:1012100000D5F1E19A0500D5FDE1DA0500D5F7E149
:101220001A0600D5F1E15A0600D5EBE19A0600D581
:10123000CAE2DA0600D538E31A0700D53BE35A07BD
:1012400000D535E302221A4200D02BE30C320F31D5
:101250008B4001379CB2A046F61B092E10DC019C86
:10126000002C31D1040260460079103620436446D8
:1012700064790002204301240194002E00DC46E63C
:10128000170091E7062207218AE40522062187E458
:10129000012200215242E5E60722082180E40822CB
:1012A00009217DE40A220B217AE409220A2177E44C
:1012B00000220121D6E602220321D3E601220221E7
:1012C000D0E60B27FFF759FA012CD6D1040260466D
:1012D0008079103620430224C0030194CDE7002614
:1012E000FFF787FB06220721BCE605220621B9E6A7
:1012F00004220521B6E603220421B3E60F0063E5CC
:10130000012C07D0022C00D0D9E50134C0030F36E0
:101310000194D4E504026046807910362043644687
:10132000E4790002204302240194C8E50D220E2135
:1013300036E40C220D2133E40B220C2130E4012190
:1013400000224942DAE4009BA14600201400012556
:101350004246984600232900994001330843A3429E
:10136000F9D94346034018004B46104380B2F61AA1
:10137000304180B2FFF754FB00210122BEE403217B
:101380000422BBE402210322B8E401210222B5E4D5
:101390000A220B2166E609220A2163E608220921B6
:1013A00060E6072208215DE604210522A6E4082163
:1013B0000922A3E407210822A0E4062107229DE4D4
:1013C000052106229AE40D220E214BE60C220D2166
:1013D00048E60B220C2145E60222032138E70122D0
:1013E000022135E7140000234246012580460020F3
:1013F0002900994001330843A342F9D981E600222C
:10140000012125E701220021524221E709210A2278
:1014100074E4C04644020020C026C2780388F60067
:101420001643DA0316430122590500D5C8E35912C1
:101430000A4200D0C2E319120A4200D0BCE31906E6
:1014400000D5B7E399110A4200D0B1E359110A421D
:1014500000D0ABE319110A4200D0A5E3D9100A422B
:1014600000D09FE399100A4200D071E35B101A424A
:1014700000D06BE30127CB4B00221B8801259B4644
:101480000F23984600234046E04694460F370093CA
:101490006A467B1E137112799946131ADBB200213A
:1014A000934205D82C009C40013321439342F9D943
:1014B0004B461B1A9A4600D52DE20B00524633408C
:1014C000D34062461A4393B25A465340D90B00D0D8
:1014D00038E28022D201134200D030E28022920111
:1014E000134200D028E280225201134200D020E2B1
:1014F0001A0500D533E25A0500D52DE29A0500D52C
:1015000027E2DA0500D521E21A0600D533E25A06B1
:1015100000D52DE29A0600D527E2DA0600D521E2B1
:101520001A0700D52DE25A0700D527E202221A42F7
:1015300000D088E20E310D32934001309CB2A446B7
:101540003F1A092F10DC009800280FD1404644466E
:1015500000793602304366790002064301201037D5
:101560000090002F00DCADE4080091E7012808D0CE
:10157000022812D00328F4D10130F6030F3700906F
:10158000EFE740464446807936023043E679000270
:101590000643022010370090E3E74046007A360207
:1015A0000643032008370090DBE7414623028C7A8C
:1015B00017361C430423E40300931000FFF7ABF934
:1015C000434641461B7A240223434C7A1B021C43A8
:1015D0000323103600931000FFF79DF94346414660
:1015E0009B7924022343CC791B021C43022310362F
:1015F00000931000FFF78FF90422052128E603224B
:10160000042125E60822092122E6072208211FE6F7
:10161000062207211CE60522062119E6E024C278ED
:101620000388E4001443DA03144301215A0500D56A
:10163000D6E25A12114200D0D0E20122D90500D5DB
:10164000CAE2D9110A4200D0C4E299110A4200D07C
:10165000BEE259110A4200D0B8E219110A4200D084
:10166000B2E2D9100A4200D0ACE299100A4200D08E
:1016700072E25B101A4200D06CE20127494B002253
:101680001B8801269B460F23984600234046E046D0
:1016900094460F3700936A467B1E13711279994660
:1016A000131ADBB20021934205D835009D40013367
:1016B00029439342F9D94B461B1A9A4600D503E1B8
:1016C0000B0052462340D34062461A4393B25A4617
:1016D0005340D90B00D00DE18022D201134200D03B
:1016E000A3E180229201134200D0A4E180225201A2
:1016F000134200D09CE11A0500D590E15A0500D5AF
:101700008AE19A0500D584E1DA0500D57EE11A0662
:1017100000D578E15A0600D572E19A0600D56CE151
:10172000DA0600D566E11A0700D530E15A0700D580
:101730002AE102221A4200D074E10C320F318B40B0
:1017400001309DB2AC463F1A092F11DC00980028E9
:1017500010D14046007924022043444664790002B7
:101760000443012010370090002F01DCFFF7CFFB6E
:10177000100090E7012808D0022815D00328F3D1E3
:101780000130E4030F370090EEE7404680792402F1
:1017900020434446E47900020443022010370090BD
:1017A000E2E7C046440200204046007A240220437B
:1017B0004446647A00020443032010370090D3E7C4
:1017C0000A210B22FFF79AFA09220A2140E508278D
:1017D000FEF7D3FF0727FEF7D0FF0627FEF7CDFF62
:1017E0000527FEF7CAFF0427FEF7C7FF0A27FEF703
:1017F000C4FF0927FEF7C1FF0C210D22FFF77EFA77
:101800000B210C22FFF77AFA0D210E22FFF776FA50
:1018100014000023424601258046002029009940FB
:1018200001330843A342F9D96BE400210122FFF7F9
:101830002FFB012100224942FFF72AFB022103224C
:10184000FFF726FB01210222FFF722FB0D210E22CA
:10185000FFF71EFB0C210D22FFF71AFB0B210C22B8
:10186000FFF716FB0A210B22FFF712FB09210A22C0
:10187000FFF70EFB04210522FFF70AFB03210422D8
:10188000FFF706FB08210922FFF702FB07210822C8
:10189000FFF7FEFA06210722FFF7FAFA05210622D2
:1018A000FFF7F6FA0D220E21D2E40A220B21CFE433
:1018B0000C220D21CCE40B220C21C9E40327FEF7F6
:1018C0005CFF0227FEF759FF8046150000206246A4
:1018D000002301210E009E4001333043AB42F9D971
:1018E0002040104343464A4680B29B1A184180B2BA
:1018F000FFF796F801220021524220E780461500AA
:1019000000206246002301210E009E400133304337
:10191000AB42F9D9E4E78046140000206246002378
:1019200001252900994001330843A342F9D93040E9
:10193000D7E702210322FFE501210222FCE5002175
:101940000122F9E5012100224942F5E5062107229D
:10195000F2E505210622EFE504210522ECE503214D
:101960000422E9E50A210B22E6E509210A22E3E542
:1019700008210922E0E507210822DDE50C210D22DE
:10198000DAE50B210C22D7E50C220D21D7E60B223C
:101990000C21D4E60420FFF70BFB0520FFF708FB22
:1019A0000620FFF705FB0720FFF702FB0820FFF7E3
:1019B000FFFA0920FFF7FCFA0A20FFF7F9FA0B20DB
:1019C000FFF7F6FA0227FFF787F80327FFF784F8F7
:1019D0000427FFF781F80527FFF77EF80627FFF7B2
:1019E0007BF80727FFF778F80827FFF775F809272E
:1019F000FFF772F80A220B21A1E609220A219EE6CE
:101A0000082209219BE60722082198E606220721E1
:101A100095E60522062192E6042205218FE603229F
:101A200004218CE60D220E2189E60022012186E6A2
:101A30000222032183E60122022180E60122002105
:101A40005242FEF7CCFF0D210E2275E50B220C2130
:101A5000FEF7C5FF0A220B21FEF7C1FF09220A216A
:101A6000FEF7BDFF08220921FEF7B9FF0D220E2166
:101A7000FEF7B5FF0C220D21FEF7B1FF0A27FFF795
:101A80002BF80B27FFF728F807220821FEF7A7FFFE
:101A900006220721FEF7A3FF05220621FEF79FFF7E
:101AA00004220521FEF79BFF03220421FEF797FF86
:101AB00002220321FEF793FF01220221FEF78FFF8E
:101AC00000220121FEF78BFF0B26FFF761FB0B269F
:101AD000FEF714FF0726FEF711FF0826FEF70EFF9C
:101AE0000926FEF70BFF0A26FEF708FF0726FFF779
:101AF0004FFB0826FFF74CFB0926FFF749FB0A2698
:101B0000FFF746FB0626FFF753F90726FFF750F9C4
:101B10000826FFF74DF90926FFF74AF90220FFF7DB
:101B200047FA0320FFF744FA0A26FFF741F90B268C
:101B3000FFF73EF90226FFF73BF90326FFF738F9D6
:101B40000426FFF735F90526FFF732F9022792E45C
:101B5000032790E4022791E503278FE50326FEF78C
:101B6000CDFE0426FEF7CAFE0526FEF7C7FE0626B2
:101B7000FEF7C4FE0226FFF70BFB0326FFF708FB68
:101B80000426FFF705FB0526FFF702FB0327FFF7F7
:101B900054F80427FFF751F80527FFF74EF80627FA
:101BA000FFF74BF8042766E4052764E4062762E4A0
:101BB000072760E408275EE409275CE40A275AE463
:101BC0000B2758E4042759E5052757E5062755E56F
:101BD000072753E5082751E509274FE50A274DE573
:101BE0000B274BE50227FFF728F80B27FFF725F80F
:101BF0000626FFF7CDFA0226FEF780FE0727FFF73D
:101C00001CF80827FFF719F80927FFF716F80A2725
:101C1000FFF713F8F0B557464E464546DE460388B3
:101C2000E0B5012598468946002189B0AC461E35AD
:101C30000690AA46002045468846494607920A2350
:101C4000002600270022002405900490029083467D
:101C5000019101300095009D61461D41294200D04F
:101C600012E101301F2A00DD24E145463D432C00EE
:101C7000344300D149E1052800D1CFE10024013BE4
:101C8000E9D2019B41469946431C1F2A01DD00F021
:101C90009CFC444634433C4300D0D4E10132052B44
:101CA00001D100F08CFE002602301F2A01DD00F079
:101CB00097FC3B000B431C00344301D000F066FD51
:101CC00001320026052801D100F09FFE01301F2AB5
:101CD00001DD00F090FC3B000B431C00344301D0BD
:101CE00000F041FD0132052801D100F092FE0026EE
:101CF000069B00249D7803239C46023B98461E3396
:101D000000938A466346AC466146454619410D42FA
:101D100000D045E301301F2A00DDCEE354463900F0
:101D200021430C00344301D100F024FC052801D1EB
:101D300000F0D6FD0024013BE6D265465146002D59
:101D400031D0069B033503339A46069B9C460123FC
:101D5000654403959C460D0053461978A8460091AA
:101D6000494607230191009D61461D41294200D04B
:101D7000E8E101301F2A00DD23E245463D432C0007
:101D8000344300D146E2052800D162E10024013B42
:101D9000E9D2019B4546994601239846039BC244DC
:101DA0005345D9D12900069B01259B89AC4698460D
:101DB0001E35AA464546884649460E2301910095A0
:101DC000009D61461D41294200D038E201301F2AA2
:101DD00000DDA7E245463D432C00344300D1EFE24D
:101DE000052800D146E10024013BE9D2019B414690
:101DF00099461F2A01DD00F0DCFB434633433B4399
:101E000001D100F0D7FC042C01D100F00DFE1F24FD
:101E100001205D461F2A0BDC3B000B4333430AD1F4
:101E20000600A31A9E400132354300261F2AF3DD27
:101E3000202A00D12FE11F2EECDD0123079AAB46AB
:101E40001032934049464A681342FCD18946079AAA
:101E5000484691005A4649440A6142681342FCD1FF
:101E6000029A0A6142681342FCD1049A0A614268EC
:101E70001342FCD10020059B0B6109B03CBC90468D
:101E80009946A246AB46F0BD01341F2A09DC4546FF
:101E90003D43280030432BD0052C00D1B6E0002074
:101EA000EDE6202A68D0052CF9D1202A78D000242C
:101EB0000020E4E6202A3FD0052800D0DEE60024FA
:101EC0000020202A00D0DAE61F2F4CDD2000202F32
:101ED00000D0D4E644461F2C01DD00F0E0FF002EC8
:101EE00001D100F05EFF0024002020272022C6E65A
:101EF00051468E1A6146B1400E00594631438B4619
:101F00000132052C77D00026B9E601320528FAD136
:101F10001F2A01DD00F0D5FF25432E1E00D082E0F0
:101F20005146881A614681400800594601438B4654
:101F3000013200240020A2E61F2F0BDC444634436C
:101F40000AD10137052801D100F0C2FD0021002689
:101F5000884694E6202F6AD0052800D08EE61F2FF1
:101F600001DD00F028FD4246324301D100F0B3FD0F
:101F700000240020202282E61F2F21DC404630432F
:101F80000BD15146C81B61468140080002990026CA
:101F900001430291002188460137052C00D07EE7DD
:101FA0001F2F01DD00F03AFD4446344301D000F01C
:101FB00037FD0022013790460026002020325EE6E1
:101FC000202FEAD142461F2A00DDAAE0002E0BD1C5
:101FD00041465246521A614691400A000499114303
:101FE000012291460491C844052C01D100F05BFD0B
:101FF0002022002043E61F2A01DD00F065FF2C00AF
:10200000044307D101320026002038E630002C00BE
:102010000443F7D006000024002030E634002543B6
:102020002E1E00D17CE726000020002427E6424631
:102030001F2A67DC724272419044052800D149E7AB
:10204000202200241BE6052B00D02DE6340000F0F2
:10205000B9FC34002800204300D091E11F218C1AE4
:102060006146A1400C00594621438B4601320026AF
:1020700000248CE634002800204300D076E251464C
:102080008C1A6146A1400C00594621438B4601320F
:1020900000260024A8E61F2F0FDC0B00334300D0DE
:1020A000C9E60100E31B99400B000299013719436F
:1020B0000291002600211F2FEFDD202F00D0BAE66D
:1020C0001F290DDC002E01D000F0F5FB0200631A81
:1020D0009A401300049A01311A4304921F29F1DD3A
:1020E0002022202900D0A6E61F2E00DDA5E6020052
:1020F000A31B9A401300059A01361A430592202724
:102100000A0098E64246202A97D11F2E01DD00F0F2
:102110005AFD0136052801D100F058FD474600243C
:10212000ADE54246202A00D05EE71F2E00DD5BE7CA
:1021300052466146921B91400A00059901361143AF
:10214000059151E701341F2A11DC45463D43280023
:1021500030434ED0052C01D0002018E630002C0072
:10216000044300D008E10132002600200FE6202AB7
:1021700006D0052CF0D1202A15D00024002006E638
:102180001F2F72DC404630430BD11F21C81B614614
:1021900081400800029900260143029100218846EF
:1021A0000137052CD8D11F2F00DD44E240463043D3
:1021B00000D051E100220137904600260024203251
:1021C000E5E5202A2ED0052800D0DFE500240020F8
:1021D000202A00D0DBE51F2F69DD202F00D0D6E5B7
:1021E00042461F2A00DD7DE2002E00D07EE24446FA
:1021F000A7E11F218E1A6146B1400E0059463143B6
:102200008B460132052C01D00026C0E51F2AA6DD31
:102210000026B0E701320528F6D11F2A00DC19E7B5
:102220000026D3E71F2F3ADC4446344339D1013727
:10223000052800D183E1002100268846A7E5013466
:102240001F2A3CDC45463D432800304300D1C1E015
:10225000052C01D00020C7E5300005432E1E00D01C
:1022600080E1013200240020BEE5202F99D14246B2
:102270001F2A00DDBEE0002E0BD141461F22521A5C
:10228000614691400A00049911430122914604914C
:10229000C844052C00D1C0E02022002077E5202F83
:1022A00072D0052800D071E51F2F00DD34E14246D1
:1022B000324300D132E100240020202267E5202AA9
:1022C00006D0052CC6D1202A16D0002400208BE58C
:1022D0001F2F00DDD0E0404630430BD15146C81BD4
:1022E00061468140080002990026014302910021C5
:1022F00088460137052CADD11F2F00DDB1E34046E4
:1023000030430CD1002201379046002600242032B1
:102310006AE54246202A01D100F0ACFC20272022A9
:102320000024D3E7202A00D199E0052800D05AE5FF
:1023300000240020202A00D056E51F2F00DCB4E046
:10234000202F00D050E542461F2A00DDDAE3002EA0
:1023500000D0DBE341465246521A614691400A00E2
:10236000049900261143012291460491C844002497
:10237000002020271F3237E506000024002006E554
:1023800026000020002402E542461F2A52DC724249
:1023900072419044052800D122E720220024F6E46F
:1023A00001341F2A00DDAAE050463900014308002D
:1023B000304300D1E5E0052C00D19AE20020BAE4D8
:1023C0000132052801D000260EE51F2A00DC52E666
:1023D0000026ADE751468E1A6146B1400E005946BF
:1023E00031438B460132052CEDD11F2A00DC34E746
:1023F000002668E74246202A00D04AE71F2E00DD6B
:1024000047E76146013A921B91400A00059901365F
:1024100011430591052C00D03EE742461F2A16DCE9
:10242000002E18D1012291460024C8440020202704
:102430001F32ACE44246202AACD11F2E00DD5BE106
:102440000136052800D139E2474600249FE4424680
:10245000202A00D112E22027202200248EE61F2FFE
:102460001ADC444634431AD10137052800D1DDE295
:10247000002100268846B7E4202F00D03AE74246E4
:102480001F2A00DD40E1002E00D165E2052C00D1BD
:1024900071E220220020A7E4202F00D115E10528B9
:1024A00000D0A0E41F2F00DDD8E24246324300D125
:1024B000BFE200240020202296E4202A00D1BFE0C1
:1024C000052800D036E400240020202A00D032E481
:1024D0001F2F00DCCCE02000202F01D0FFF72BFCC9
:1024E00054461F2C01DD00F00DFC002E01D100F040
:1024F00078FC0024002020272022FFF71CFC202A43
:1025000000D1BEE0052C00D058E7202A00D1CCE055
:1025100000240020FFF70FFC002037E41F22614653
:10252000D21B91400A000299013711430022029107
:1025300090460026002400202032FFF728FC202FA0
:10254000ECD11F226146121B91400A00049900261B
:102550001143621C90460491002400202027202271
:10256000FFF715FC0600002400203DE426000020B3
:10257000002439E40132052800D189E10026FFF763
:10258000DAFB009DAE1A4546B5402E005D46354348
:10259000AB460132052CF1D11F2A01DD00F089FC88
:1025A00001430C1E00D0A9E1013200260020FFF7F4
:1025B000C2FB202A00D10BE1042C01D0FFF727FC3D
:1025C000202A01D0FFF723FC0CE1202A00D11EE1D4
:1025D000052B01D0FFF768FB0120202A00D124E160
:1025E000202A00D132E1052801D0FFF76FFB01203E
:1025F000202A00D1A4E2202A00D134E1052801D00C
:10260000FFF776FB0020202A01D0FFF771FB1F2F78
:1026100000DDEDE23000084300D0ECE21F22012390
:10262000D21B9340029A01371A43029200260021DE
:102630002022FFF75DFB202F00D1EEE620220CE7E1
:102640001F2F0BDC544634430BD10137052800D132
:10265000C4E3002100268A46FFF76DFB202F00D13E
:102660006BE1052801D0FFF765FB1F2F00DD70E34C
:102670005246324300D108E3002400202022FFF715
:102680005AFB1F2F5FDC514631430BD14046009966
:102690000026C91B88400100029801370843002129
:1026A0008A460290052C00D088E61F2F00DD3FE30C
:1026B00030005246104300D0CDE10022013792464F
:1026C000002600242032FFF736FB42461F2A2CDC6E
:1026D000724272419044052800D134E62022002441
:1026E000FFF782FB4246202A00D1E7E000240020C9
:1026F00020272022FFF74BFB052800D1DEE04746CC
:1027000042460024FFF743FB4246202A00D0BDE6A4
:102710001F2E00DDBAE652466146921B91400A0028
:102720000599013611430591B0E64246202AD2D1DF
:102730001F2E00DD32E20136052800D1B6E2474601
:102740000024FFF751FB202FACD150461F2800DD9D
:102750008BE1002E00D173E2052C00D1EBE22022A8
:102760000020FFF7E8FA052801D0FFF7C1FA34008E
:102770002343181E00D0D3E11F240123A41AA34031
:102780005C461C43A3460132FFF7B1FA052801D08D
:10279000FFF79CFA1800304300D0B0E101231F304E
:1027A000801A834058461843834601320026012090
:1027B000FFF78DFA1F250120AD1AA8405D4605439D
:1027C000AB460132042C00D10DE10026FFF71FFBC0
:1027D0001F2F00DC9BE0202F00D1E7E1042C01D06B
:1027E000FFF715FB20221F2F00DD71E233000B43A2
:1027F00001D0FFF70CFB1F210133C91B8B4002994D
:1028000001371943029100260021FFF700FB1F2F1B
:1028100006DC4246324306D101370026002102E0A1
:10282000202F00D19DE1052B6DD11F2F00DDA2E2ED
:1028300033000B4309D11F220133D21B93400026E2
:102840000021029A01371A43029201201F2F00DD56
:10285000A1E033000B4302D10026002101370528F7
:1028600000D16DE101301F2F60DD202F00D15BE131
:10287000052800D1CBE62022FFF73AFA1F2E00DD13
:10288000E9E501362027202200240020FFF77FFA07
:102890001F2A00DD1EE32143081E25D1444600996E
:1028A0000026891A8C4021005C460C43A346013265
:1028B0000024FFF740FA2022FFF7BDFA1F2E08DCA4
:1028C0001F226146921B91400A000599013611436F
:1028D000059120220024002090462027FFF757FA78
:1028E00034002143081ED9D0260000200024FFF721
:1028F00022FA300001430C1E00D155E606000024E8
:102900000020FFF718FA02301F2FA2DD43E04346F4
:10291000334300D062E71F210133C91B8B4002996A
:102920000137194302910026002157E733000B437A
:102930009ED10137002600219AE754461F2C00DD66
:10294000A3E072427241A2469244052800D1C7E535
:1029500020220024FFF7EFF941465246521A614601
:1029600091400A0004991143012291460491C84400
:10297000052C00D08DE542461F2A00DDC9E4002E5B
:1029800000D0CBE4012291460024C8440020202737
:102990001F32FFF729FA202F00D060E720271F29D8
:1029A00000DC49E1202900D059E71F2E00DD56E761
:1029B00001360F0053E700200024FFF760F91F2ABB
:1029C00000DD73E23B000B431E00264300D0A3E072
:1029D0001F200123801A8340584618438346013242
:1029E0000120FFF762F91F2A00DD70E23E000E436E
:1029F0001E4300D080E01F200123801A83405846E8
:102A0000184383460132FFF702FA1F2A00DCC1E6B1
:102A1000EDE51F2A00DCABE60026F3E5202F42D0CF
:102A200020220024FFF744FA3300DFE7202F00D1F3
:102A300064E152466146D21B91400A000299013777
:102A400011430022029190460026002400202032EB
:102A5000FFF7CAF92027202200245AE50020FFF7BB
:102A6000C2F9202F87D020225AE4202800D073E614
:102A70001F2E00DD70E64146009A921B91400A002D
:102A8000059901361143059166E65246202C00D087
:102A90005BE71F2E00DDB5E10136052800D135E1E9
:102AA0001700FFF747F942461F2A0ADC002E0CD117
:102AB000012291460024C844002020271F32FFF73E
:102AC000DEF84246202A00D1C6E020272022A8E7CF
:102AD000202F00D165E152466146D21B91400A0089
:102AE00002990137114300220291904600260024EA
:102AF00000202032FFF7C3F81E00FFF788F90120FD
:102B0000FFF7EBF84246202A00D1CFE00024002056
:102B100020272022FFF768F926000120FFF7CBF8D5
:102B200026000020FFF7E4F81F2900DC80E02029C0
:102B300000D09DE60F001F2E00DD99E6013697E6D6
:102B40001F2F64DC33000B4309D11F220133D21B3A
:102B5000934000260021029A01371A430292012075
:102B600081E61F2900DC81E0202905D100251F24F2
:102B7000F20FB4426A41B618052B00D0C3E61F29F4
:102B800000DD45E1002E07D11F220123521A934098
:102B9000049A01311A4304920120FFE6052800D16E
:102BA00084E0474642460024FFF71EF91F2926DC31
:102BB000002E27D11F220123521A9340049A01317B
:102BC0001A4304921EE0052800D075E11F2E08DC90
:102BD00052466146921B91400A0005990136114305
:102BE000059120220024002090462027FFF747F877
:102BF000202F00D1C4E020220020FFF779F82029FF
:102C000000D1DFE0042C67D02022FFF700F9202F4D
:102C1000A5D11F2900DD1FE1002EA0D11F22012315
:102C2000521A9340049A01311A43049201201AE681
:102C300073427341C9181BE673427341C9180EE60B
:102C40004146009A121A91400A00049911435246D3
:102C50000132049192467FE51F2E00DD35E70136F3
:102C60002027202200240020FFF709F87242724139
:102C7000891881E71F2E01DDFFF750FB0136202761
:102C8000202200240020FFF7AFF84146009A0026DA
:102C9000D21B91400A000299013711430022029190
:102CA0009246002400202032FFF745F81F2E08DC52
:102CB00052466146921B91400A0005990136114324
:102CC000059120220024002090462027FFF78CF851
:102CD000202F01D0FFF79BF81F2900DDACE0002E6C
:102CE00000D0A5E01F220123521A9340049A01311B
:102CF0001A43049220272022FFF789F800229046E9
:102D0000FFF728FB202C01D0FFF7F3FB1F2E08DC78
:102D10004146009A921B91400A00059901361143E1
:102D2000059120220024002092462027FFF703F877
:102D3000202F00D08FE652461F2A0EDC002E00D036
:102D400088E6013292460024002020272022FEF748
:102D5000F2FF00200024FEF7EEFF5246202A00D0AA
:102D600078E61F2E00DD75E601362027202200249C
:102D70000020FEF7E0FF202F00D100E7012065E5ED
:102D80001F297ADC002E00D035E71F220123521ABA
:102D90009340049A01311A43049200202022FEF746
:102DA000A7FF52466146121B91400A000499002673
:102DB0001143621C90460491002400202027202209
:102DC000FEF75DFF1F2E00DD1CE71F220123921B73
:102DD0009340059A01361A43059213E7202F00D03D
:102DE00053E74146009A0026121B91400A000499BD
:102DF00000201143621C92460491002420272022C7
:102E0000FEF799FF052881D052461700FEF792FF82
:102E1000202900D0C0E61F2E00DDBDE61F220123C1
:102E2000921B9340059A01361A4305920120B5E59D
:102E300020272022FEF7EBFF2029F9D11F2EF7DCF7
:102E40001F220123921B9340059A01361A430592D3
:102E500020272022FEF7DBFF202900D07FE60F008D
:102E60001F2E00DD7BE61F220123921B9340059A53
:102E700001361A4305920120F5E4202900D0BAE674
:102E80001F2E11DC1F220123921B9340059A01364D
:102E90001A4305920F0020220020FEF729FF202C64
:102EA00001D0FFF720F891E60F00A4E60026FFF717
:102EB00093FB0026FFF729FB474642460024FEF716
:102EC000DEFE0026FEF7FBFF0026FEF7EEFF0026E3
:102ED000FFF776FB0026FFF7F6FAC046F0B5574637
:102EE0004E464546DE460B00E0B5012585B0083369
:102EF00002929D409A00002301939846B44B92465B
:102F00009946B44B04009B46B34EB44F03918244A0
:102F100063681D42FCD153461B78DBB2DA01327084
:102F20004246002A3ED14A461268002A5ED0012A53
:102F30003CD0AB4B01369E42EAD101221500039EE4
:102F40002368311D8D402B432360A64B00211A605E
:102F50000023A54AF81C13605A4613604A461360C2
:102F60000022BA7008223B80BB8104F009FCFA20E1
:102F7000800000F04FFFB44623681D437300634494
:102F8000DB00D0332560E41880235B011C438023E1
:102F90001B062360236005B03CBC90469946A246C0
:102FA000AB46F0BD4B461A68012AC2D1019B002BEB
:102FB000BFD1029A38001368019301331360FDF703
:102FC0009BFB0122BB8901928342B2D1022007F010
:102FD00027F9029B0E221B683900D800C01A834BC8
:102FE00040009C46604404F0D1FBA2E77D4A7E4944
:102FF00012680968052A34D005293ED0042A39DC34
:10300000002903D0002A35D1042933DC01200340F4
:1030100053D1002101327448016072490A605A4656
:1030200012680A2A35DD11000B3902293FD9110037
:103030000E39032944D9B978002953D11100123926
:103040000E2930D9212A15D1002B00D134E10123DA
:103050004A46136000239846019B002B00D068E786
:10306000A7E70029C8D1DB0734D542465D4B1A607B
:103070005D4B1A60002398465BE7002AFAD1DB0714
:1030800000D588E0584B1A60564B1A6000239846CA
:103090004FE73988013249000B433B805B461A6099
:1030A0000023984645E7B98949000B43BB815B463D
:1030B00001321A60002398463BE701310022AAE75B
:1030C000B978013249000B43BB705B461A6000239C
:1030D00098462EE7464804F0EFFB4B461A6801235A
:1030E000984624E7012945D0022900D18AE0032926
:1030F00053D0042900D19AE0052900D155E10629D1
:1031000000D12CE1072900D1D8E00829B2D1110063
:103110001239072900D8C5E011001A39072900D84B
:10312000B6E011002239072900D8A7E011002A399A
:10313000072900D898E011003239072900D804E1A6
:1031400011003A39072900D8F5E011004239072962
:1031500000D8E6E011004A39072900D8D7E011006D
:1031600052390E299FD9612A84D1002B00D06EE7F5
:103170002048B0E711001239072900D892E0110069
:103180001A390E298FD9292A00D073E7002B00D0D5
:103190005DE719489FE719489DE711001239072993
:1031A00000D87FE011001A39072971D9110022399E
:1031B000072963D911002A390E2900D873E7392A63
:1031C00000D057E7002B00D041E70D4883E7C04609
:1031D000380F0020800B00208816002008170020E0
:1031E00008170020480200207C0B00201817002040
:1031F000E0B40010C8B5001020B50010F4B4001001
:1032000050B500101100123907294BD911001A3995
:1032100007293DD9110022390E2900D843E7312A68
:1032200000D027E7002B00D011E7724853E71100C8
:103230001239072936D911001A39072928D911005E
:10324000223907291AD911002A3907290CD9110066
:1032500032390E2900D826E7412A00D00AE7002B90
:1032600000D0F4E6644836E7B979013249000B43EF
:10327000BB715B461A60002398465AE679790132A1
:1032800049000B437B715B461A600023984650E669
:103290003979013249000B433B715B461A600023C8
:1032A000984646E6F978013249000B43FB705B46CD
:1032B0001A60002398463CE650480CE7110012398A
:1032C0000729EFD911001A390729E1D9110022394C
:1032D0000729D3D911002A390729C5D91100323954
:1032E000072932D911003A39072924D91100423966
:1032F000072916D911004A390E2900D8D3E6592AD0
:1033000000D0B7E6002B00D0A1E63D48E3E6B97A4D
:10331000013249000B43BB725B461A60002398469A
:1033200007E6797A013249000B437B725B461A60EB
:1033300000239846FDE5397A013249000B433B7280
:103340005B461A6000239846F3E5F979013249009B
:103350000B43FB715B461A6000239846E9E51100B8
:10336000123907299ED911001A39072990D911005D
:103370002239072982D911002A39072900D873E791
:10338000110032390729E0D911003A390729D2D979
:10339000110042390E2900D885E6512A00D069E68D
:1033A000002B00D053E6174895E611001239072983
:1033B00000D877E711001A39072900D868E711000B
:1033C0002239072900D859E711002A39072900D8DE
:1033D0004AE7110032390729B7D911003A390E29C5
:1033E00000D860E6492A00D044E6002B00D02EE643
:1033F000054870E638B5001068B5001008B5001033
:10340000B0B5001098B5001080B50010D023F0B50D
:10341000C6461B061B6800B5002B26D1144F154B62
:10342000002407260F259846E208130008339B0066
:10343000D959330023409B00D94029400FD00800C0
:1034400098403C320C4B9200D050D02342461B0691
:103450001B689B009B58002B01D02000984701342B
:103460001E2CE1D104BC9046F0BD044FD7E7C04606
:1034700000410140BC0B00200040014030410140B0
:10348000094A830094464022634410B51C68C0007A
:103490006240C02414408022520113431C60034B3D
:1034A0009C466044416010BD04C0014000400140A2
:1034B0000B4B80009C46604400290DD00C21082352
:1034C000002A00D00B00026853400C221A408023CF
:1034D0005B0118430260704704210023F0E7C046F7
:1034E00004C0014070B5D02424062468002C21D1EA
:1034F000144E0724C5082040800081402800124C4B
:103500003C308000AD0001517519002A14D1C02251
:10351000920115432960D022120612680B499200CD
:1035200053500D200A4901F03FFC01210D2001F00C
:1035300019FC70BD074EDCE780229201154329601B
:10354000E9E7C0460041014000400140BC0B0020BB
:103550000D340010304101400123D0228340120677
:1035600093629361094A8300944640226344196838
:10357000C0004A40C021114080225201134319600B
:10358000034B9C46052360444360704704C00140E0
:1035900000400140EFF3108072B6034A1368002B1D
:1035A000FCD0BFF35F8F70472C0100D0BFF35F8F5B
:1035B0000022024B1A6080F3108870472C0100D063
:1035C000F8B5EFF3108C72B60D4F3B68002BFCD0B2
:1035D000BFF35F8FCB08C018057807242B000C4081
:1035E000E3400126334008D1A64035430570BFF3C0
:1035F0005F8F3B608CF31088F8BD100001F0D4F9A8
:103600002C0100D0F8B54746CE46884680B5EFF38A
:10361000108C72B61D4D2C68002CFCD0BFF35F8F50
:103620009A4218D8D408041926780725370015407F
:10363000EF40F9071ED507218946063908E0D4086E
:10364000041926784D4637001540EF40394211D015
:1036500001329342F3D201204042BFF35F8F002238
:103660000A4B1A608CF31088002809DB0CBC9046CA
:103670009946F8BD0123AB401E4326701000ECE7CD
:103680004346002BF2D0089801F08EF92C0100D0AF
:103690000021044B044ABFF35F8F02C39342FAD167
:1036A0007047C046000100D0800100D0044A107865
:1036B000431CDBB2172B00D9102313707047C04690
:1036C0004C02002000B5054B83B001000093182286
:1036D0001F230348FFF796FF03B000BDE0B50010BD
:1036E0004C0F0020024B18688007C00F7047C0467F
:1036F00000C0064083680B4810B5844661446244AC
:10370000090112019A18591854684B6801209C420B
:1037100001D802D00020C0B210BD12680B689A42D6
:10372000F9D8F7E7FFFFFF0F40BF002000217047E7
:10373000F8B54E4657464546DE46E0B51F000DAB90
:103740001B78804699460C9B1600002B35D0302202
:103750006B469B184246FF2592681B7894469A4612
:103760000C9B0A9A1D403C4BEB181B0163449A606A
:103770000B9A1E605F60DA6043461B6800229B461E
:103780006B005D195B461B68033D5B199A705A70AC
:103790001A705B465C7B002C21D05346002B20D155
:1037A0005B465C730C9B9C4232D01C0020003CBCEE
:1037B00090469946A246AB46F8BD02680024937B2A
:1037C000002BF3D0106859008446C91861440339AE
:1037D00049789173002900D1D1730C93B7E754460F
:1037E000DEE75B465246986821005B6898475B4677
:1037F0001A68002821D063001B195519033BD31800
:10380000AC701A78002A00D06A7052461A70C7E766
:1038100043463200187D3B0000F0C4FC051E07D073
:103820004B46002B04D143465146186800F0FEFE7B
:103830000E9B002BBAD01D70B8E763001B19033B29
:103840005519D31852469A702A78002A00D05A7017
:103850002C705446A4E7C046FFFFFF0FF0B5DE46CC
:10386000454657464E46724B8200E0B5D558002378
:103870009B468DB00B9000F033FC6B68EFF3108427
:1038800072B61A68002AFCD0BFF35F8F2A6894468C
:10389000527B9146002A00D17CE0AA68654B904695
:1038A0004B441B01984443461E685F6832003B004E
:1038B000121A8B41002B00DC85E032003B000B9894
:1038C00000F070FC002100220027002608910992D8
:1038D0006B68BFF35F8F5A461A6084F31088002E1E
:1038E00067D0534618024B4639001843B0476A6800
:1038F00006900791EFF3108872B644461368002BC8
:10390000FCD0A046BFF35F8F0699079A002A24DAFD
:103910002B69002B27D0089B099C5B1A94410898BF
:1039200009991A002300994200D975E000D177E087
:10393000594604910121039149460197029100964D
:103940002800FFF7F5FE5B462B616B68BFF35F8FC6
:103950005A461A6088F310888DE71300194302D085
:103960002B69002B4BD12B68DA7B002A07D0510042
:103970008A1819688C4649466244033A51704A468F
:10398000DA73EA684B469446013B63441A78013285
:103990001A70D8E70021002200270891099200261A
:1039A0000020BFF35F8F5A461A6084F31088002E00
:1039B00097D1002800D05EE70DB03CBC90469946F8
:1039C000A246AB46F0BD002B02D1002A00D074E71E
:1039D0000121604600F07EFD43461A685B6808924C
:1039E000099343469E68DF68EB684B44013B1B78B4
:1039F0009A461B02184328616B68002069E700F0B3
:103A00006FFB069A079B12184B41994204D800D0CD
:103A10008EE7904200D88BE701225242D31787E706
:103A2000904200D884E701225242D31780E7C04673
:103A300038160020FFFFFF0F70B5184C2368002BCD
:103A400000D070BD032000F03FFB032000F008FC15
:103A50001349032000F060FB182003F081FE0500ED
:103A6000FFF724FE0F4B2A009C46604480006860EC
:103A70000D49102000F0FCFC10212860102003F0FC
:103A800073FE0121A860102003F06EFE03232B7546
:103A9000064BE860DD602560D3E7C046780F002064
:103AA0005D38001040000034F53600103816002054
:103AB000014B18687047C046780F0020F0B5DE460D
:103AC00057464E464546E0B585B00092019310AB8F
:103AD0001B7807009B460023994698467B68EFF3C6
:103AE000108A72B61A68002AFCD0BFF35F8F3D6857
:103AF000AC7B002C00D173E0660036192B68033EC6
:103B00009B195B78AB73002B00D1EB73BA68554BF4
:103B100094460099019AE3181B01634419605A60A6
:103B20000E9A02949A600F9ADA6042462B689B19AB
:103B30009A705A701A706B7B0393002B00D17EE051
:103B400019006B682200A8689C46E0472A68002894
:103B500066D003989619844643006344033BD31808
:103B6000B0701A78002A00D078E01C706873844224
:103B700066D0FB681B19013B18787B68BFF35F8F29
:103B800042461A608AF31088002C34D04B46002B32
:103B900009D1029B0002184305B03CBC90469946EF
:103BA000A246AB46F0BD5B46002B59D00E9B0F9949
:103BB00000209847030004000D000B4350D000295B
:103BC0001CDA0098019902000B00121BAB419942CC
:103BD0001FD801D190421CD800920193D9467DE7AD
:103BE000002200200292BFF35F8F42461A608AF3E0
:103BF0001088002CCAD101204042CDE700F070FAB5
:103C000024184D4100940195A94202D8E6D1A04262
:103C1000E4D901235B42DC17D946009301945DE7A8
:103C2000039996198C464B006344033BD3189C7050
:103C30003278002A00D05A706B461B7B33706C734D
:103C4000387D009A019B00F0ADFA8146002800D132
:103C50008FE72100386800F0E9FC8AE7727084E79A
:103C6000002099E7FFFFFF0FF0B557464E46454647
:103C7000DE460400E0B50D0006267642F717361939
:103C80006F4183B08F423DD83AD000F029FA32001C
:103C90003B00121A8B41002B3EDD5A4B1B689A46A3
:103CA0005B68EFF3108B72B61A68002AFCD0BFF382
:103CB0005F8F524612689146927B9046002A30D11F
:103CC000BFF35F8F00221A608BF310884346002BEE
:103CD00009D039004C4A536A8B420FD3906AB042E4
:103CE00001D28B420AD02000290000F005FA03B06F
:103CF0003CBC90469946A246AB46F0BD20BFEAE7E1
:103D00008642C2D90026002700F0EAF932003B00C3
:103D1000121A8B41002BC0DC002BE4D1002ABCD14D
:103D2000E1E753004344033B1A0000934B4694469B
:103D30004A461B6863445B789373002B00D1D373AE
:103D400052469268314B94464344314A1B016344C6
:103D50009A6000221E605F60DA6000994B468C46D4
:103D60001B6863449A705A701A704B465B7B0193D0
:103D7000002B36D0190048464B46424680685B68A7
:103D8000984700281AD00198009984464A46430073
:103D900063448C46694612680979033BD318624430
:103DA00091701978002900D0517042461A704B4624
:103DB0005873804518D053465B6881E74B4601989D
:103DC0001A688446009BD11843006344033BD31810
:103DD00042469A700A78002A00D05A706B461B79C6
:103DE0000B704B4642465A7353463200187D3B00D7
:103DF00000F0D8F90028DED053464146186800F09C
:103E000015FCD8E7780F002000400540FFFFFF0FAA
:103E10002937001070B5060000F062F9FA2204009C
:103E20000D00920000233000002103F0F5FB001983
:103E300069418D4205D901204042C117FFF714FFA7
:103E400070BD8D42FAD18442F5D8F7E7F0B55746F8
:103E50004E464546DE46E0B56F4B83B01E68984639
:103E600081460F007368EFF3108A72B61A68002A51
:103E7000FCD0BFF35F8F3568AC7B002C49D063006A
:103E80001B19033B1A00944601932B6863445B782B
:103E9000AB73002B00D1EB73B268604B94464A467B
:103EA000E3181B0163441A605D4A01999A6000227D
:103EB0008C46DA605F602B6863449A705A701A709F
:103EC0006B7B9B46002B00D18FE022001900A86875
:103ED0006B6898472A68002800D178E05B46019912
:103EE0005B008C4659465B44033BD3186244917097
:103EF0001978002900D051701C705B466B735C45CB
:103F000000D173E00025F3681B19013B1A78736830
:103F100001E000250022BFF35F8F002119608AF3C2
:103F20001088002C44D0002D42D11202144320BF2F
:103F300043461E687168EFF3108872B60B68002B59
:103F4000FCD0BFF35F8FE3B29C463068437B634590
:103F500059D0FF2323405A00934602689B4492465F
:103F60005A465244033A9278002A2BD0F268240A27
:103F700092465344013B1B78A34247D0BFF35F8F67
:103F800000230B6088F31088264A536A9F4207D8A3
:103F9000926A01254A4503D2FF1A7B1E9F41FDB25A
:103FA000280003B03CBC90469946A246AB46F0BD03
:103FB0001C4A0025536A9F42F2D8926A01354A454D
:103FC000EAD3EDE733699C42D8D13261D6E7019B51
:103FD000D1185B465B005B44033BD3189C700A78A6
:103FE000002A00D05A705B460B706C73307D4A46D5
:103FF0003B0000F0D7F8051E00D183E721003068B0
:1040000000F014FB7FE7FF232340AFE7614600F099
:104010000DFB7168B2E7C046780F0020FFFFFF0F6D
:104020002937001000400540F8B5CE46474680B518
:10403000EFF305833F22134018001038EFF3108C84
:1040400072B61B490A68002AFCD0BFF35F8F0121BA
:104050000F008740174D184A6F631478914622006D
:10406000C24090464646002231420BD0696A134D49
:10407000884681004D59A84512D3114BBC43CA58FC
:104080004B461C70BFF35F8F0021094B19608CF306
:104090001088002A00D090470CBC90469946F8BD85
:1040A00008499B008846434419681960EAE7C046FE
:1040B000280100D000400540661600205016002060
:1040C0003C0F0020D03F054010B50100024A0348D4
:1040D000FFF776FA10BDC04608B600106316002040
:1040E000044A516A00E01900906A536A9942FAD171
:1040F0007047C04600400540064A536A9942FCD8C2
:1041000007D1044B02E05A6A914202D19A6A824274
:10411000F9D370470040054070B504000D00EFF37F
:10412000108672B61A4A1368002BFCD0BFF35F8F5B
:10413000002D1BD0200000F02FFE164988420AD027
:10414000200000F031FE0121200000F00BFE0123D1
:10415000A340114A1360114BA400E550BFF35F8FD9
:1041600000220B4B1A6086F3108870BD0B4BA20027
:10417000D5500122A2400A4920000B7893430B70CE
:10418000044900F03BFE0021200000F0EBFDE5E7D4
:10419000280100D029400010386005403C0F002065
:1041A00066160020F0B5CE464746294C80B5656AB4
:1041B00000E00D00A66A616AA942FAD1AB4237D984
:1041C000EFF3108872B6234C21680029FCD0BFF3AE
:1041D0005F8F012585401E491F4E4D63ECB2A446FA
:1041E0003478A14664464F463C433470041DA40015
:1041F00062501A4C800003510C6A00202C420CD0F3
:104200004C6A00E004008F6A486AA042FAD1A342D7
:1042100002D813D1BA4211D90020BFF35F8F002218
:104220000C4B1A6088F310880CBC90469946F0BD80
:10423000AB4201D1B242C3D80120F5E7044B4F464F
:104240001D625D6363469F4337700120E5E7C0460A
:1042500000400540280100D06616002050160020BE
:1042600010B5EFF3108472B60A490B68002BFCD02E
:10427000BFF35F8F01238340074A08481362027827
:104280009A430270BFF35F8F00230B6084F31088A2
:1042900010BDC046280100D0004005406616002031
:1042A000024B9C4661448900016070474000003425
:1042B00010B50400FFF7FAF901002000FFF7F0FF46
:1042C000FF232371BFF35F8F10BDC04610B50400FC
:1042D0000120FFF7F7F901002000FFF7E1FFBFF32E
:1042E0005F8F10BDF8B54E464546DE465746E0B5F1
:1042F0004C0064180368033C1A190D00517806003D
:104300008946002906D128003CBC90469946A24621
:10431000AB46F8BD4F004F44033FD819417888465B
:10432000002141705170002D12D073684A46290057
:10433000B06898473368002873D0DF191A19BD7028
:104340001178002900D0797049462700117000E0EB
:104350004D464246002AD6D054004444033C1A1924
:1043600051788946002911D1736842462900B06806
:1043700098473368002849D01C19DF19A5703B788D
:10438000002B00D0637043463B70BCE749004944B2
:1043900003398A46534459788B460021597051702D
:1043A00073684A464146B06898473368002843D14D
:1043B00052461C199A184B46A3701378002B00D054
:1043C000637043465446C84613705B46002BCBD0FF
:1043D00059463000FFF786FF81460028C4D002000E
:1043E0004146B06873689847326800282FD04B4622
:1043F0005B004B44033B1119D31842469A700A786C
:10440000002A00D05A704B460B70ADE71C19DF191B
:104410004346BB702378002B00D07B702570454647
:1044200071E749461C19DA19A1701178002900D0EA
:10443000617015704D468CE741461A1953449970C6
:104440001178002900D059704B461370BDE74B46D8
:104450005B004B44033BD11814194A46A2700A78FA
:10446000002A00D0627042461C000A70C8467BE7F2
:10447000F0B5C64605000E0000B51021012090469B
:1044800003F072F9EFB204004660077303212800BD
:1044900003F06AF94346A360002306002060FF2072
:1044A00063730133A373E7732840012807D9721C93
:1044B000411C01331370013303329942FAD1430096
:1044C00018180023301803384370200004BC9046AD
:1044D000F0BDC046F0B54E4657464546DE46E0B50F
:1044E000477B03687C00E419033C1A19167883B0F3
:1044F00005008946002E1ED1002911D1C07B00285D
:1045000069D041000918591803394F70EF73002E14
:1045100006D07100891903398846002143449970F7
:104520000023380053706E7303B03CBC904699462C
:10453000A246AB46F0BD7100891903398846591867
:1045400048788246002807D149460029E5D1E87B12
:104550000028D6D1EF73DCE742005244033A944678
:10456000019263445A78934600225A704A706B68ED
:1045700052463100A86898472B68002832D041463F
:1045800001985A1819188E701078002825D15146B4
:1045900011705A46002A23D059462800FFF7A2FE80
:1045A000824600281BD002006B683100A86898473B
:1045B0002B68002825D04246991852465200524492
:1045C000033A9A1896700878002800D05070524626
:1045D0000A701A19B8E7EF73A2E74870D7E72B689B
:1045E0001A19B1E741465046019A59189A1888702D
:1045F0001078002800D048701670019A56469046F0
:10460000C7E752465100514403395A184046934671
:104610005246181882705A461278002A00D042700A
:104620005A46884616701A1956468DE7F0B5454623
:10463000DE4657464E46E0B50C0083B0050000222A
:1046400000293DD0477B0168BC426BD0660036191B
:10465000033E88198378002B32D05A00D318033BCD
:10466000CB181A78944202D143E0002A08D05300B4
:104670009B18033BCB185A789442F6D142785A7073
:1046800000238370437003789846002B25D1EA7B82
:10469000002A1DD053009B18CB18033B5C70434687
:1046A000EC73002B00D171E05C0000234444033C18
:1046B00009198B704370002F1ED1434601226B7382
:1046C000100003B03CBC90469946A246AB46F0BDF4
:1046D000B846EC7300234370EFE719002800FFF79A
:1046E00001FE2968EA7B80466F7B8819002AD6D0B4
:1046F000D0E742781A70C3E742463900A8686B6871
:1047000098472A68002824D07B00DB191419033B42
:10471000D318A7701A78002A00D062704246B846B3
:104720001A70CAE77E00F619033E8B191878804686
:1047300000281BD1E87B002804D0420012188A18F8
:10474000033A5470EC7300225A70434601326B7383
:10475000B6E77B00DB19033B1419D31842469A7065
:104760002278002A00D05A702770A6E744004444FB
:10477000E01E019008184478A246002C08D1EC7B7A
:10478000002C76D1EF7300228270DCE7B846A1E7F7
:1047900063005344033B994649444B784A70427046
:1047A0009B4622006B684146A86898472B68002802
:1047B0004BD049464046019C59181A198870107808
:1047C000002850D15146A14611705A46002A20D0E7
:1047D00059462800FFF786FD041E19D00200414605
:1047E000A8686B68984700281ED04A4641462B6847
:1047F000981862001219033A9A18917001780029EA
:1048000000D051700470E97B002905D19B19B9E7EC
:104810002B684A469818F6E74A0052189A18033A45
:1048200057709B19EF73AEE74B462968600000197B
:104830000338CB1808189C700278002A00D05A70F0
:104840004346A04603708B1999E74A469818019A87
:104850009C185246A2700278002A00D0627042462C
:10486000D0460270B1E7487051461170019A9146E6
:10487000ABE7032262438A18033A577082E7C046C7
:104880002C4A2D4B70B51A602C4A2D4B2D491A60BD
:1048900010008B689843FBD12B4E2C4B9E420AD2C2
:1048A000F5430024ED18AD080135A300F358013499
:1048B0009847AC42F9D100F095F8254A204B1A6090
:1048C000204A9368DB018033FBD14022214B224CEC
:1048D0009A675A671A67DA66204B9C420BD2E64306
:1048E0000025F618F608013620000135FFF7E0FC38
:1048F0000834B542F8D11A4D1A4CC022A1682800DC
:1049000002F044FFA560FEF7C3FE00F0ABFBFFF72B
:1049100093F8154E154B9E420AD2F5430024ED182C
:10492000AD080135A300F35801349847A542F9D1E9
:1049300070BDC046BFCDFFFF00E00040FE7F3C00E1
:1049400000F0004000C00040400B0020500B002051
:10495000FFFFFF0100F00140380B0020400B00205A
:104960000000002000ED00E0500B0020540B002060
:10497000094A1368002B06D008491818884208D243
:10498000106018007047064B0449181813608842DD
:10499000F6D301204042F5E7AC0F002000000420D0
:1049A0007C1F002000BEFDE70FB400B5084883B0AF
:1049B00002F082FF049B002B07D005A9180001918B
:1049C00001F084FF034802F077FF00BEFDE7C04618
:1049D00038B6001048B6001010B50148FFF7E4FFE4
:1049E0002CB6001030B50C2083B000F077F9FEF73C
:1049F00079FE00280ED09C4B9C4A1A605A609A603F
:104A0000DA601A615A619A61DA611A62984A5A62E6
:104A100003B030BD974CA06700F068F90122964BB7
:104A20001A60636C012BFCD10322944B1A60914AEB
:104A3000936B012BFCD1C022914B92011A60914BD8
:104A400091491A6010008B689843031EFAD1022422
:104A500006338E4A01218E48009400F05BF905234D
:104A60008C4A009401218C4800F054F98B4B5A6811
:104A7000FF2A02D8802252005A6080227A4C7F4B53
:104A800021691201854D1A60002900D0E5E0E0217E
:104A9000824B02201A681140802252012A43116081
:104AA0001968484003210140116004219A681142AD
:104AB000FCD08022802192012A43090111608022CA
:104AC00052005A60764B2361764B5968FF2900D813
:104AD000C1E00322684B73481A60012103009A6801
:104AE0001142FCD0E0251A68154080225201024391
:104AF00015601B684B400321194011600221694A6F
:104B000093681942FCD0802380219B010343090153
:104B100019608021644B490051606361634B5A689E
:104B2000FF2A00D859608022614BE16912015F4D74
:104B30001A60002905D0606901F04CFF013001388E
:104B4000FDD1E02259490B681A4080235B012B43B9
:104B50001A60802380229B012B4312011A6080225D
:104B6000424B52004A60E361524B5968FF2900D81A
:104B70005A608022504B216A12014E4D1A60002962
:104B800005D0606901F026FF01300138FDD1E02237
:104B900048490B681A4080235B012B431A6080232D
:104BA00080229B012B4312011A6080235B004B6023
:104BB0002E4B424A2362424B5968914201D801323E
:104BC0005A6080223F4B616A12013D4D1A600029F4
:104BD00005D0606901F0FEFE01300138FDD1E02210
:104BE00037490B681A4080235B012B431A608023EE
:104BF00080229B012B4312011A608023DB024B6051
:104C00001B4B6362304B5A68FF2A02D88022520045
:104C10005A6080222D4BA16912012B4D1A60002988
:104C200005D0606901F0D6FE01300138FDD1E022E7
:104C300025490B681A4080235B012B431A608023AF
:104C400080229B012B4312011A6080235B004B6082
:104C5000154BA361DCE65A603BE7606901F0BAFEE0
:104C600001300138FDD112E7500F0020006CDC024A
:104C70001BB70000008000403CB0004030B0004056
:104C800000E0004000F0004000C00040002F6859E4
:104C90000080024000389C1C00C002403080004070
:104CA000001BB7003C80004040597307548000400F
:104CB00054B000406080004060B00040FFFF03003F
:104CC0006C8000406CB000404880004048B000401C
:104CD000014B8000C0587047500F002080239B007C
:104CE0001843014BD862704700800540AA23064A4A
:104CF0001B0113602F230549D360054B19605368CE
:104D0000002BFCDA7047C0460040024000B0FA00B9
:104D100000600240F8B51D0006AB1E7801235B421F
:104D2000436000230400836001600C20170001F041
:104D300051FE0B494143380001F04CFEC022231DB7
:104D400092011A432123A06013602368002BFCDA30
:104D5000082336032D043543E5601360F8BDC046D3
:104D600040420F0001238340002902D1034A13600F
:104D70007047034A1360034A1360F9E780E100E0DB
:104D800080E200E000E100E001238340014A13607B
:104D90007047C04600E200E0024B10309B68800084
:104DA000C058704700ED00E070B50D00EFF31086BD
:104DB00072B60F4A1368002BFCD0BFF35F8F0D4B08
:104DC00010309B6884001B590B4A934203D09D42CC
:104DD00001D0FFF701FE074B9B681D51BFF35F8FAA
:104DE000BFF35F8F0022024B1A6086F3108870BDFC
:104DF000240100D000ED00E0CD010010F0B5DE464A
:104E000057464E464546E0B50C0083B0EFF3108B95
:104E100072B65B4A1368002BFCD0BFF35F8F102281
:104E2000904680444246574B97009B68DD59564B4D
:104E300099469D4206D0A54200D178E0534EAB1B67
:104E40002F2B12D94F4B9B68DD51BFF35F8FBFF300
:104E50005F8F00224A4B1A608BF3108803B03CBC72
:104E600090469946A246AB46F0BD012383409A4640
:104E70005246474B1B681A4000925246454B1A60F7
:104E8000BFF35F8FFBF7EFF90190002844D10123B6
:104E9000290099438B689C424ED006200856002872
:104EA00033DB0A0004E0062018561A0000282CDB29
:104EB00043001B189B00F31898688442F3D1062026
:104EC000185600283BDB42001118890074188846E8
:104ED000A1689960E179D971062161569971A1792A
:104EE0007F2926D8A488F11A640524154444091999
:104EF000E0240905490D2402214399801218264B0C
:104F00009200B6181A781870B271009B002B08D165
:104F10005246204B1A6095E78045B8D0FFF75CFDFC
:104F2000B5E752461D4B1A60194B1A608AE71D00FF
:104F300088E7BD210902E0E70B000022BFE70198E6
:104F400000280ED1002A19D0FF30907114489080AB
:104F5000114A891B107889109871124B4B431370BA
:104F6000D3E7114A1149D21A083A5002400D0143C1
:104F700099800F4952080A43DA80C6E74D46E7E7B1
:104F8000240100D000ED00E0CD010010500200200F
:104F900000E100E080E100E06516002080E200E032
:104FA00000BDFFFFABAAAAAA8A02002000F0FFFF03
:104FB00000F8FFFFF8B5012504000543FBF753F99E
:104FC000EFF3108672B6204A1368002BFCD0BFF3B3
:104FD0005F8F1E4A1E49A31A9B104B431D49800038
:104FE0008F683F58BD4226D0062151568B4226D0AD
:104FF000122151568B4224D01E2151568B4210D083
:105000002A21515603208B420CD0134A1178137079
:10501000A171BFF35F8F00220B4B1A6086F31088DB
:10502000F8BD02204100091889005218FF21917132
:105030000A499180E9E78A6809491150E5E70020AB
:10504000F0E70120EEE7C046240100D05002002026
:10505000ABAAAAAA00ED00E06516002000BDFFFF84
:10506000CD010010F0B500220324FF278026200088
:105070003D00094B11009C461040C0008540A143F3
:1050800061440B680132AB43350085402B430B6014
:10509000202AECD1F0BDC04600E400E07047C046D5
:1050A00010B5002803D04A680B681100984710BD5E
:1050B00010B5002800D110BD0B4B1C68A268936886
:1050C000013B9360002B04DB1368591C11601870BE
:1050D000F1E791698B4201DB0A28F5D1010020003C
:1050E00005F056FCE7E7C046FC020020F0B5454657
:1050F000DE4657464E46E0B583B099460EAB1D7866
:10510000119B88469B460223129900920B40070090
:105110000D9C109A0193002B28D15B46002B00D0E8
:1051200092E0944222D201260E401F2C1ED80C9BE6
:1051300030201B1902E00133202C03D001341870F9
:10514000A242F8D8002E11D0A3450FD90C9B3020D5
:105150001B195E461F2C04D987E00133202C00D197
:10516000A7E001341870B442F7D1A346CB0611D59D
:105170004B0502D4002C00D07CE00F9B102B00D1FB
:10518000A0E0022B00D1A7E01F2C11D830230C9AED
:10519000135501341F2C0BD8002D00D079E04B079C
:1051A00000D588E00B0733D520230C9A1355013422
:1051B0008B0730D0009E2500A24632004446B04600
:1051C0000C9B013D561C585D21004B46B8473200F0
:1051D000002DF5D14646A04654463619019B002BBA
:1051E0000ED0009D731B5B450AD232004446013647
:1051F0004B4621002020B8473200731B5B45F6D395
:10520000300003B03CBC90469946A246AB46F0BD88
:10521000009E8B0715D15C456ED2009A0D94130049
:105220005B441D1B0D9B44469846561C4B46210073
:105230002020B8473200B542F7D14346A0461C00B3
:105240000D93002CB7D1C9E701260E4028D0002DC0
:105250002AD10C230B4227D1944200D374E71F2C90
:1052600000D864E7A34500D880E7CB06A0D54B055E
:1052700000D582E7A24202D05C4500D07DE7631EE4
:10528000002B3BD00F9A023C102A1BD01C001300AD
:1052900077E72D230C9A135501348B07BBD089E790
:1052A000944200D241E761E701235B429C46E3441C
:1052B000D2E7B346D9E72B230C9A135501348B0759
:1052C000A9D077E78B060FD41F2C00D970E778237D
:1052D0000C9A1355013457E71F2C00D968E70C9A34
:1052E0006033135501344FE71F2C00D960E7582372
:1052F0000C9A1355013447E7009EA2E700243CE7CF
:10530000F0B5DE4657464E464546E0B597B0050037
:105310000E0093461F00209A219B1000190001F0F7
:105320000EFE002800D0D5E2209821990122BD4B25
:10533000524201F0F1FD002800D081E1209821992E
:105340000122B94B524201F0F5FD002800D017E1CF
:10535000209821990022B54B01F0ECFD002800D0E7
:10536000BCE1209821990022B14B01F0D5FD002825
:1053700000D0B3E1209821990022002301F0CCFD58
:10538000002800D054E200230D938023249ADB00F0
:105390001A40914600D007E20023A64C08930994D6
:1053A00006240EAB07932098219901F0F3FD804667
:1053B0000C9001F0D7FD02000B002098219901F01C
:1053C0004EFD089A099B01F065FD0A900B9101F0D2
:1053D00005FE824601F0C2FD02000B000A980B99FF
:1053E00001F03DFD0022944B0A900B9101F0A2FDCB
:1053F000002800D1C5E101239C46E244504601F05B
:10540000ADFD089A099B01F08DFD002800D030E227
:10541000002C00D074E10C9C200001F0A3FD0200E0
:105420000B002098219901F01AFD0022824B089070
:10543000099101F071FD002800D10AE24B46202BB2
:1054400000D196E15C1C0C9B0A211800984601F0E3
:1054500095FA4A46079B3031995440460A2101F09B
:105460008DFA079B80469946A14400281BD02A004C
:10547000330025004E46444699469046202D00D1E3
:1054800025E220000A2101F079FA30313170200044
:105490000A2101F073FA0135040001360028EDD12C
:1054A0002C004E4645460323249A1340012B00D17D
:1054B0009BE120229246202C0CD00D9A002A00D08D
:1054C000C1E1249A520700D44CE2621C92462B227E
:1054D00007990A555A460892002B17D1239B9A45E3
:1054E00000D34FE25B441C005346E41AB846370031
:1054F0002E002500541C434639002020B0472200CE
:10550000AC42F7D135003E004746089453465C1E36
:10551000079B08AA9C461723644494466344B946F3
:10552000984637002E00089A551C20784B463900C3
:10553000013CB0472A00A045F6D1089B35005344F2
:105540001C00249B3E009B0712D55B46239AE31A5E
:105550009A420DD91300C84622005F46994601348D
:10556000434631002020A8472200E31B9945F6D886
:10557000200017B03CBC90469946A246AB46F0BD11
:10558000249B5B0700D5A4E02C4B9A46032307938A
:10559000249BD8469B0719D1079B23998B4200D3A4
:1055A000ECE15A469B1A9846239B99463B003100F2
:1055B0002020541CA84743461B1922009945F5D8C2
:1055C000239B5B441C00079BE31A9846B146424666
:1055D0005646BA462F00079C013C551C305D534689
:1055E0004946B8472A00002CF6D1079B3D004344AA
:1055F0001C00249B4E469B07BAD55B46239AE31AB0
:105600009A42B5D91300D04622005F46994601342C
:10561000434631002020A8472200E31B9945F6D8D5
:10562000A6E7C046FFFFEFFFFFFFEF7F65CDCD414F
:1056300065CDCDC180842E410000E03F34B800101C
:10564000249BD8469B0716D1239B042B00D897E1B7
:105650001C1F5C44B8465A4637002E002500541CD7
:10566000434639002020B0472200AC42F7D1350034
:105670003E004746A046CE4BB9464246370004247A
:105680009A462E005346013C551C185D39004B4686
:10569000B0472A00002CF5D14446249B3500043441
:1056A0003E009B0700D463E75B46239AE31A9A42C5
:1056B00000D85DE71300C84622005F4699460134D2
:1056C000434631002020A8472200E31B9945F6D825
:1056D0004EE7B84B9A460423079359E7249B5A4652
:1056E0000493239B31000393229B28000293209B69
:1056F000219C009301943B0000F064F9040037E71B
:105700004B46202B35D0631E98464B460A21504607
:105710005C1C01F05FF94A46079B303199545046B2
:105720000A2101F057F98146002800D1B6E0079B15
:105730009A463B00A2444746A84625004C46B1463F
:1057400056469A4610E020000A2101F043F9303114
:10575000317020000A2101F03DF9013F01350400BC
:105760000136002800D194E0202DECD145464E466C
:1057700057460323249A1340012B35D0202292460A
:10578000A8E600220A980B998B4B01F0C5FB002874
:1057900000D03DE65346002B02D0DB0700D437E6AD
:1057A00001239C46E24433E6229B092B00D8F2E019
:1057B0000122302391460EA80370229B07905C1EA5
:1057C0002F32093B494604E042540131013C202973
:1057D00001D08B42F8D1794BE2009B181A685B68C4
:1057E000894608920993DEE52024239B002B47D0AD
:1057F0000D9B002B03D1249A0C33134202D0239B20
:10580000013B2393239BA3423AD9202C00D1BDE036
:10581000302221001800079B1B1901311A708842A1
:105820002DD001332029F8D15B468A4608936DE6D6
:10583000209A219B0020002101F011FB01232090E0
:1058400021910D93A1E5621C92462D2207990A55DC
:1058500040E6002208980999574B01F06BFB00289D
:1058600000D0EBE50123A44623409C4463460C93FF
:10587000E4E5434601330C9300239A46C8E5239C94
:105880000123202C00D018E61F339A465B4608936C
:105890003CE62C004E464546B8465746202C00D1E3
:1058A00067E742464046079B11191B193022002822
:1058B00007D001341A70202C00D15AE701338C42F2
:1058C000F7D1631C99462E23079A1355B6E5454632
:1058D0004E464EE7249BD8469B0715D1239B032BAE
:1058E00052D9DC1E5C44B8465A4637002E002500CB
:1058F000541C434639002020B0472200AC42F7D167
:1059000035003E004746A0462D4BB946424637007B
:1059100003249A462E005346013C551C185D39005D
:105920004B46B0472A00002CF5D14446249B350055
:1059300003343E009B0700D41AE65B46239AE31A21
:10594000934200D314E61300C84622005F469946EE
:105950000134434631002020A8472200E31B99452B
:10596000F6D805E6249AA246120700D4B2E5012231
:10597000944607991F32E2440A55ABE5D84625E61E
:10598000D84678E60892C1E5D846BDE720239A4676
:105990005B460893BAE5DA00084B9B185C681B6805
:1059A00008930994002399460EAB229C0793FAE4CE
:1059B0003CB800102CB800100000E03F48B80010C0
:1059C00038B80010F0B557464546DE464E46E0B5BD
:1059D0009BB00A93249B82461C000B93259B099144
:1059E0001D000D920C93002200232000290001F0DD
:1059F00093FA002800D088E10B9A0C9B90469B46B6
:105A00008023289ADB001A40119201D106232693A5
:105A10005B465800C14B400D9C46604401F0A2FA21
:105A2000BF4AC04B01F036FABF4AC04B01F020FA22
:105A30005B46BF4A1B031B0B1A4304000D00BD4B02
:105A400011004046002201F00AFABB4ABB4B01F0AC
:105A500021FA02000B002000290001F009FA01F0F0
:105A600099FA814601F07EFAB54AB64B04000D0062
:105A700001F010FA0022B44B01F0FAF901F08AFAB1
:105A8000B24A0600B24B2000290001F003FA0400DC
:105A900030000D00109601F065FAAE4AAE4B01F0F1
:105AA000F9F902000B002000290001F0D8F90200EA
:105AB0000B0006000F0001F0EDF9320004000D00AC
:105AC0003B003000390001F0D3F900220E900F9115
:105AD000A24B2000290001F0D4F90022A04B01F0D4
